{
  "contractName": "SellerContract",
  "abi": [
    {
      "anonymous": false,
      "inputs": [
        {
          "indexed": true,
          "internalType": "address",
          "name": "sellerAddress",
          "type": "address"
        },
        {
          "indexed": false,
          "internalType": "string",
          "name": "firstName",
          "type": "string"
        },
        {
          "indexed": false,
          "internalType": "string",
          "name": "lastName",
          "type": "string"
        }
      ],
      "name": "SellerRegistered",
      "type": "event"
    },
    {
      "inputs": [
        {
          "internalType": "address",
          "name": "",
          "type": "address"
        }
      ],
      "name": "sellers",
      "outputs": [
        {
          "internalType": "string",
          "name": "firstName",
          "type": "string"
        },
        {
          "internalType": "string",
          "name": "lastName",
          "type": "string"
        },
        {
          "internalType": "string",
          "name": "email",
          "type": "string"
        },
        {
          "internalType": "string",
          "name": "phone",
          "type": "string"
        },
        {
          "internalType": "string",
          "name": "fieldDomain",
          "type": "string"
        }
      ],
      "stateMutability": "view",
      "type": "function",
      "constant": true
    },
    {
      "inputs": [
        {
          "internalType": "string",
          "name": "_firstName",
          "type": "string"
        },
        {
          "internalType": "string",
          "name": "_lastName",
          "type": "string"
        },
        {
          "internalType": "string",
          "name": "_email",
          "type": "string"
        },
        {
          "internalType": "string",
          "name": "_phone",
          "type": "string"
        },
        {
          "internalType": "string",
          "name": "_fieldDomain",
          "type": "string"
        },
        {
          "internalType": "string[]",
          "name": "_skills",
          "type": "string[]"
        }
      ],
      "name": "registerSeller",
      "outputs": [],
      "stateMutability": "nonpayable",
      "type": "function"
    },
    {
      "inputs": [
        {
          "internalType": "address",
          "name": "_sellerAddress",
          "type": "address"
        }
      ],
      "name": "getSeller",
      "outputs": [
        {
          "internalType": "string",
          "name": "firstName",
          "type": "string"
        },
        {
          "internalType": "string",
          "name": "lastName",
          "type": "string"
        },
        {
          "internalType": "string",
          "name": "email",
          "type": "string"
        },
        {
          "internalType": "string",
          "name": "phone",
          "type": "string"
        },
        {
          "internalType": "string",
          "name": "fieldDomain",
          "type": "string"
        },
        {
          "internalType": "string[]",
          "name": "skills",
          "type": "string[]"
        }
      ],
      "stateMutability": "view",
      "type": "function",
      "constant": true
    },
    {
      "inputs": [
        {
          "internalType": "string",
          "name": "_email",
          "type": "string"
        }
      ],
      "name": "isEmailRegistered",
      "outputs": [
        {
          "internalType": "bool",
          "name": "",
          "type": "bool"
        }
      ],
      "stateMutability": "view",
      "type": "function",
      "constant": true
    }
  ],
  "bytecode": "0x608060405234801561001057600080fd5b506117a3806100206000396000f3fe608060405234801561001057600080fd5b506004361061004c5760003560e01c80635ba518b5146100515780636d47ab721461006d578063a323d29e146100a1578063df3cdad7146100d6575b600080fd5b61006b60048036038101906100669190610ed9565b610106565b005b61008760048036038101906100829190610e6f565b6104b4565b604051610098959493929190611356565b60405180910390f35b6100bb60048036038101906100b69190610e6f565b610792565b6040516100cd969594939291906113cc565b60405180910390f35b6100f060048036038101906100eb9190610e98565b610bcf565b6040516100fd9190611304565b60405180910390f35b600086511161014a576040517f08c379a000000000000000000000000000000000000000000000000000000000815260040161014190611477565b60405180910390fd5b600085511161018e576040517f08c379a0000000000000000000000000000000000000000000000000000000008152600401610185906114b7565b60405180910390fd5b60008451116101d2576040517f08c379a00000000000000000000000000000000000000000000000000000000081526004016101c9906114d7565b60405180910390fd5b6000835111610216576040517f08c379a000000000000000000000000000000000000000000000000000000000815260040161020d90611497565b60405180910390fd5b600082511161025a576040517f08c379a000000000000000000000000000000000000000000000000000000000815260040161025190611457565b60405180910390fd5b600081511161029e576040517f08c379a000000000000000000000000000000000000000000000000000000000815260040161029590611517565b60405180910390fd5b6001846040516102ae91906112ed565b908152602001604051809103902060009054906101000a900460ff161561030a576040517f08c379a0000000000000000000000000000000000000000000000000000000008152600401610301906114f7565b60405180910390fd5b6040518060c00160405280878152602001868152602001858152602001848152602001838152602001828152506000803373ffffffffffffffffffffffffffffffffffffffff1673ffffffffffffffffffffffffffffffffffffffff1681526020019081526020016000206000820151816000019080519060200190610391929190610c04565b5060208201518160010190805190602001906103ae929190610c04565b5060408201518160020190805190602001906103cb929190610c04565b5060608201518160030190805190602001906103e8929190610c04565b506080820151816004019080519060200190610405929190610c04565b5060a0820151816005019080519060200190610422929190610c8a565b509050506001808560405161043791906112ed565b908152602001604051809103902060006101000a81548160ff0219169083151502179055503373ffffffffffffffffffffffffffffffffffffffff167f029a886814235a877cf2ff5df3c674a946b17782bf260ca120b7b951a6d35cc687876040516104a492919061131f565b60405180910390a2505050505050565b60006020528060005260406000206000915090508060000180546104d7906116b5565b80601f0160208091040260200160405190810160405280929190818152602001828054610503906116b5565b80156105505780601f1061052557610100808354040283529160200191610550565b820191906000526020600020905b81548152906001019060200180831161053357829003601f168201915b505050505090806001018054610565906116b5565b80601f0160208091040260200160405190810160405280929190818152602001828054610591906116b5565b80156105de5780601f106105b3576101008083540402835291602001916105de565b820191906000526020600020905b8154815290600101906020018083116105c157829003601f168201915b5050505050908060020180546105f3906116b5565b80601f016020809104026020016040519081016040528092919081815260200182805461061f906116b5565b801561066c5780601f106106415761010080835404028352916020019161066c565b820191906000526020600020905b81548152906001019060200180831161064f57829003601f168201915b505050505090806003018054610681906116b5565b80601f01602080910402602001604051908101604052809291908181526020018280546106ad906116b5565b80156106fa5780601f106106cf576101008083540402835291602001916106fa565b820191906000526020600020905b8154815290600101906020018083116106dd57829003601f168201915b50505050509080600401805461070f906116b5565b80601f016020809104026020016040519081016040528092919081815260200182805461073b906116b5565b80156107885780601f1061075d57610100808354040283529160200191610788565b820191906000526020600020905b81548152906001019060200180831161076b57829003601f168201915b5050505050905085565b60608060608060608060008060008973ffffffffffffffffffffffffffffffffffffffff1673ffffffffffffffffffffffffffffffffffffffff1681526020019081526020016000206040518060c00160405290816000820180546107f6906116b5565b80601f0160208091040260200160405190810160405280929190818152602001828054610822906116b5565b801561086f5780601f106108445761010080835404028352916020019161086f565b820191906000526020600020905b81548152906001019060200180831161085257829003601f168201915b50505050508152602001600182018054610888906116b5565b80601f01602080910402602001604051908101604052809291908181526020018280546108b4906116b5565b80156109015780601f106108d657610100808354040283529160200191610901565b820191906000526020600020905b8154815290600101906020018083116108e457829003601f168201915b5050505050815260200160028201805461091a906116b5565b80601f0160208091040260200160405190810160405280929190818152602001828054610946906116b5565b80156109935780601f1061096857610100808354040283529160200191610993565b820191906000526020600020905b81548152906001019060200180831161097657829003601f168201915b505050505081526020016003820180546109ac906116b5565b80601f01602080910402602001604051908101604052809291908181526020018280546109d8906116b5565b8015610a255780601f106109fa57610100808354040283529160200191610a25565b820191906000526020600020905b815481529060010190602001808311610a0857829003601f168201915b50505050508152602001600482018054610a3e906116b5565b80601f0160208091040260200160405190810160405280929190818152602001828054610a6a906116b5565b8015610ab75780601f10610a8c57610100808354040283529160200191610ab7565b820191906000526020600020905b815481529060010190602001808311610a9a57829003601f168201915b5050505050815260200160058201805480602002602001604051908101604052809291908181526020016000905b82821015610b91578382906000526020600020018054610b04906116b5565b80601f0160208091040260200160405190810160405280929190818152602001828054610b30906116b5565b8015610b7d5780601f10610b5257610100808354040283529160200191610b7d565b820191906000526020600020905b815481529060010190602001808311610b6057829003601f168201915b505050505081526020019060010190610ae5565b50505050815250509050806000015181602001518260400151836060015184608001518560a001519650965096509650965096505091939550919395565b6000600182604051610be191906112ed565b908152602001604051809103902060009054906101000a900460ff169050919050565b828054610c10906116b5565b90600052602060002090601f016020900481019282610c325760008555610c79565b82601f10610c4b57805160ff1916838001178555610c79565b82800160010185558215610c79579182015b82811115610c78578251825591602001919060010190610c5d565b5b509050610c869190610cea565b5090565b828054828255906000526020600020908101928215610cd9579160200282015b82811115610cd8578251829080519060200190610cc8929190610c04565b5091602001919060010190610caa565b5b509050610ce69190610d07565b5090565b5b80821115610d03576000816000905550600101610ceb565b5090565b5b80821115610d275760008181610d1e9190610d2b565b50600101610d08565b5090565b508054610d37906116b5565b6000825580601f10610d495750610d68565b601f016020900490600052602060002090810190610d679190610cea565b5b50565b6000610d7e610d7984611568565b611537565b9050808382526020820190508260005b85811015610dbe5781358501610da48882610e45565b845260208401935060208301925050600181019050610d8e565b5050509392505050565b6000610ddb610dd684611594565b611537565b905082815260208101848484011115610df357600080fd5b610dfe848285611673565b509392505050565b600081359050610e1581611756565b92915050565b600082601f830112610e2c57600080fd5b8135610e3c848260208601610d6b565b91505092915050565b600082601f830112610e5657600080fd5b8135610e66848260208601610dc8565b91505092915050565b600060208284031215610e8157600080fd5b6000610e8f84828501610e06565b91505092915050565b600060208284031215610eaa57600080fd5b600082013567ffffffffffffffff811115610ec457600080fd5b610ed084828501610e45565b91505092915050565b60008060008060008060c08789031215610ef257600080fd5b600087013567ffffffffffffffff811115610f0c57600080fd5b610f1889828a01610e45565b965050602087013567ffffffffffffffff811115610f3557600080fd5b610f4189828a01610e45565b955050604087013567ffffffffffffffff811115610f5e57600080fd5b610f6a89828a01610e45565b945050606087013567ffffffffffffffff811115610f8757600080fd5b610f9389828a01610e45565b935050608087013567ffffffffffffffff811115610fb057600080fd5b610fbc89828a01610e45565b92505060a087013567ffffffffffffffff811115610fd957600080fd5b610fe589828a01610e1b565b9150509295509295509295565b6000610ffe838361108a565b905092915050565b6000611011826115d4565b61101b81856115f7565b93508360208202850161102d856115c4565b8060005b85811015611069578484038952815161104a8582610ff2565b9450611055836115ea565b925060208a01995050600181019050611031565b50829750879550505050505092915050565b61108481611647565b82525050565b6000611095826115df565b61109f8185611608565b93506110af818560208601611682565b6110b881611745565b840191505092915050565b60006110ce826115df565b6110d88185611619565b93506110e8818560208601611682565b6110f181611745565b840191505092915050565b6000611107826115df565b611111818561162a565b9350611121818560208601611682565b80840191505092915050565b600061113a601883611619565b91507f4669656c6420646f6d61696e20697320726571756972656400000000000000006000830152602082019050919050565b600061117a601683611619565b91507f4669727374206e616d65206973207265717569726564000000000000000000006000830152602082019050919050565b60006111ba601883611619565b91507f50686f6e65206e756d62657220697320726571756972656400000000000000006000830152602082019050919050565b60006111fa601583611619565b91507f4c617374206e616d6520697320726571756972656400000000000000000000006000830152602082019050919050565b600061123a601183611619565b91507f456d61696c2069732072657175697265640000000000000000000000000000006000830152602082019050919050565b600061127a601b83611619565b91507f456d61696c20697320616c7265616479207265676973746572656400000000006000830152602082019050919050565b60006112ba601283611619565b91507f736b696c6c7320697320726571756972656400000000000000000000000000006000830152602082019050919050565b60006112f982846110fc565b915081905092915050565b6000602082019050611319600083018461107b565b92915050565b6000604082019050818103600083015261133981856110c3565b9050818103602083015261134d81846110c3565b90509392505050565b600060a082019050818103600083015261137081886110c3565b9050818103602083015261138481876110c3565b9050818103604083015261139881866110c3565b905081810360608301526113ac81856110c3565b905081810360808301526113c081846110c3565b90509695505050505050565b600060c08201905081810360008301526113e681896110c3565b905081810360208301526113fa81886110c3565b9050818103604083015261140e81876110c3565b9050818103606083015261142281866110c3565b9050818103608083015261143681856110c3565b905081810360a083015261144a8184611006565b9050979650505050505050565b600060208201905081810360008301526114708161112d565b9050919050565b600060208201905081810360008301526114908161116d565b9050919050565b600060208201905081810360008301526114b0816111ad565b9050919050565b600060208201905081810360008301526114d0816111ed565b9050919050565b600060208201905081810360008301526114f08161122d565b9050919050565b600060208201905081810360008301526115108161126d565b9050919050565b60006020820190508181036000830152611530816112ad565b9050919050565b6000604051905081810181811067ffffffffffffffff8211171561155e5761155d611716565b5b8060405250919050565b600067ffffffffffffffff82111561158357611582611716565b5b602082029050602081019050919050565b600067ffffffffffffffff8211156115af576115ae611716565b5b601f19601f8301169050602081019050919050565b6000819050602082019050919050565b600081519050919050565b600081519050919050565b6000602082019050919050565b600082825260208201905092915050565b600082825260208201905092915050565b600082825260208201905092915050565b600081905092915050565b600061164082611653565b9050919050565b60008115159050919050565b600073ffffffffffffffffffffffffffffffffffffffff82169050919050565b82818337600083830152505050565b60005b838110156116a0578082015181840152602081019050611685565b838111156116af576000848401525b50505050565b600060028204905060018216806116cd57607f821691505b602082108114156116e1576116e06116e7565b5b50919050565b7f4e487b7100000000000000000000000000000000000000000000000000000000600052602260045260246000fd5b7f4e487b7100000000000000000000000000000000000000000000000000000000600052604160045260246000fd5b6000601f19601f8301169050919050565b61175f81611635565b811461176a57600080fd5b5056fea264697066735822122071c4a1d7767d41536ba5feeb8f4697e29dc209c5243e1863e9b8a73ef79d88a464736f6c63430008000033",
  "immutableReferences": {},
  "source": "// SPDX-License-Identifier: MIT\npragma solidity ^0.8.0;\n\ncontract SellerContract {\n\n    struct Seller {\n        string firstName;\n        string lastName;\n        string email;\n        string phone;\n        string fieldDomain;\n        string[] skills;\n    }\n\n    // Mapping to store sellers by their wallet address\n    mapping(address => Seller) public sellers;\n    \n    // Mapping to store whether an email is registered or not\n    mapping(string => bool) private registeredEmails;\n\n    // Event to be emitted when a new seller is registered\n    event SellerRegistered(address indexed sellerAddress, string firstName, string lastName);\n\n    // Function to register a new Seller\n    function registerSeller(\n        string memory _firstName,\n        string memory _lastName,\n        string memory _email,\n        string memory _phone,\n        string memory _fieldDomain,\n        string[] memory _skills\n    ) public {\n        // Ensure the provided first name, last name, and email are not empty\n        require(bytes(_firstName).length > 0, \"First name is required\");\n        require(bytes(_lastName).length > 0, \"Last name is required\");\n        require(bytes(_email).length > 0, \"Email is required\");\n        require(bytes(_phone).length > 0, \"Phone number is required\");\n        require(bytes(_fieldDomain).length > 0, \"Field domain is required\");\n        require(_skills.length > 0, \"skills is required\");\n\n        // Check if the email is already registered\n        require(!registeredEmails[_email], \"Email is already registered\");\n\n        // Store the Seller's information in the mapping\n        sellers[msg.sender] = Seller(_firstName, _lastName, _email, _phone, _fieldDomain , _skills);\n\n        // Mark the email as registered\n        registeredEmails[_email] = true;\n\n        // Emit event to log the Seller registration\n        emit SellerRegistered(msg.sender, _firstName, _lastName);\n    }\n\n    // Function to retrieve Seller details by address\n    function getSeller(address _sellerAddress) public view returns (\n        string memory firstName,\n        string memory lastName,\n        string memory email,\n        string memory phone,\n        string memory fieldDomain,\n        string[] memory skills\n    ) {\n        Seller memory seller = sellers[_sellerAddress];\n        return (seller.firstName, seller.lastName, seller.email, seller.phone, seller.fieldDomain, seller.skills);\n    }\n\n    // Function to check if an email is already registered\n    function isEmailRegistered(string memory _email) public view returns (bool) {\n        return registeredEmails[_email];\n    }\n}\n",
  "sourcePath": "C:\\Users\\INSHA KHAN\\Desktop\\FYP\\blockchain\\contracts\\SellerContract.sol",
  "compiler": {
    "name": "solc",
    "version": "0.8.0+commit.c7dfd78e.Emscripten.clang"
  },
  "schemaVersion": "3.4.16",
  "updatedAt": "2025-06-24T22:10:21.502Z",
  "networkType": "ethereum",
  "devdoc": {
    "kind": "dev",
    "methods": {},
    "version": 1
  },
  "userdoc": {
    "kind": "user",
    "methods": {},
    "version": 1
  }
}